:020000040800F2
:1000000028070020310200086D0200086F02000876
:100010007102000873020008750200080000000069
:10002000000000000000000000000000770200084F
:1000300079020008000000007B0200087D02000831
:100040007F0200087F0200087F0200087F0200088C
:100050007F0200087F0200087F0200087F0200087C
:100060007F0200087F0200087F0200087F0200086C
:100070007F0200087F0200087F0200087F0200085C
:100080007F0200087F0200087F0200087F0200084C
:100090007F0200087F0200087F0200087F0200083C
:1000A0007F0200087F0200087F0200087F0200082C
:1000B0007F0200087F0200087F0200087F0200081C
:1000C0007F0200087F0200087F0200087F0200080C
:1000D0007F0200087F0200087F0200087F020008FC
:1000E0007F0200087F0200087F0200087F020008EC
:1000F0007F0200087F0200087F0200087F020008DC
:100100007F0200087F0200087F0200087F020008CB
:100110007F0200087F0200087F0200087F020008BB
:100120007F0200087F0200087F0200087F020008AB
:100130007F0200087F0200087F0200087F0200089B
:100140007F0200087F0200087F0200087F0200088B
:100150007F0200087F0200087F0200087F0200087B
:100160007F0200087F0200087F0200087F0200086B
:100170007F0200087F0200087F02000800000000E4
:100180007F0200087F02000800F002F800F041F84A
:100190000AA090E8000C82448344AAF10107DA45E2
:1001A00001D100F036F8AFF2090EBAE80F0013F0F3
:1001B000010F18BFFB1A43F001031847880E000017
:1001C000A80E0000103A24BF78C878C1FAD85207A8
:1001D00024BF30C830C144BF04680C6070470000C1
:1001E0000023002400250026103A28BF78C1FBD840
:1001F000520728BF30C148BF0B607047642900F028
:10020000A380002070471FB500F017FF1FBD10B579
:1002100010BD00F06EF91146FFF7F5FF00F03AFD52
:1002200000F08CF903B4FFF7F2FF03BC00F094F97F
:1002300016481749174B99423CBF50F8042B41F818
:10024000042BF8D314494FF000028B4238BF43F817
:10025000042BFAD3DFF84400016841F47001016017
:10026000BFF34F8FBFF36F8F0D480047FEE7FEE7E8
:10027000FEE7FEE7FEE7FEE7FEE7FEE7FEE7FEE756
:1002800008480949094A0A4B7047000064100008F1
:1002900000000020C80000202807002088ED00E0B2
:1002A00089010008280100202807002028030020D9
:1002B000280300200FB41CB5084B06AA7B446946EE
:1002C0000090059800F0FDF804460020694600F013
:1002D0000BF920461CBC5DF814FB0000290200004D
:1002E0002DE9F0410E460446002020622046E168D8
:1002F000884730B3252805D0D4E901219047206AEA
:10030000401CF2E7E168204600278847050018D026
:10031000A5F14100192802D820354FF40067324674
:10032000294620462760FFF769FF40B1012804D025
:10033000F61D26F007060836D8E7361DD6E728460C
:10034000DAE7206ABDE8F0812DE9F0410646002495
:1003500010687529314616A510D0AFF3008000282B
:1003600002DA404213A507E031688A0701D512A5D9
:1003700002E0490704D511A5012401E0AFF3008094
:1003800000210A2206F1240709E0B0FBF2FCB0FBD1
:10039000F2F302FB1C00303078541846491C002848
:1003A000F3D123462A463046BDE8F04100F02AB892
:1003B000000000002D0000002B00000020000000C5
:1003C00010B5431C02E010F8011B71B18107FAD18E
:1003D0004FF0013202C88C1A8C4314EAC211F9D0D2
:1003E000C01A0A0603D0C01E10BDC01A10BD0A04F0
:1003F00001D0801E10BD0902FCD0401E10BD704708
:10040000704770472DE9F0470D46994692460446DD
:1004100000F124080168880604D5E06921F0100184
:10042000216000E00120A84201DD471B00E0002719
:10043000A1697A1902EB0900081AA0612078C006A8
:1004400002D42046AFF30080002608E0D4E9012161
:100450001AF806009047206A401C761C20624E4520
:10046000F4DB2078C0060AD52046AFF3008006E012
:10047000D4E9012130209047206A401C2062381EB8
:10048000A7F10107F4DC07E0D4E9012118F8050021
:100490009047206A401C2062281EA5F10105F3DC6C
:1004A0002046AFF300802078000602D50220BDE888
:1004B000F0870120FBE7000001694A1C026108780F
:1004C000704700B58FB0CDE9013100210591054994
:1004D0007944CDE9031011466846FFF701FF0FB0DC
:1004E00000BD0000E5FFFFFF0A6802F8010B0A608B
:1004F0007047754600F02CF8AE4605006946534635
:1005000020F00700854618B020B5FFF7B9FEBDE81A
:1005100020404FF000064FF000074FF000084FF06A
:10052000000B21F00701AC46ACE8C009ACE8C009FB
:10053000ACE8C009ACE8C0098D46704710B5044668
:10054000AFF300802046BDE81040FFF76BBE00000F
:1005500000487047C800002001491820ABBEFEE7E4
:1005600026000200704700002548C06C40F01200D1
:100570002349C8642348006820F0300021490860FE
:100580000846006840F0100008601E480830006807
:1005900020F030001B49083108600846006840F030
:1005A00030000860081F006820F04000091F086044
:1005B00014480C30006820F0300012490C310860FB
:1005C0001148006820F440300F4908600846006870
:1005D00040F4803008600846806820F4403088602D
:1005E0000846806840F4403088600846406820F43F
:1005F000802048600846C06820F44030C8607047DA
:100600000010024000040048001000485E490968DC
:1006100021F007015C4A11601146096841F00201AE
:1006200011605A49096841F48071584A116000BF4D
:100630005649096801F480610029F9D01020534916
:10064000496821F0F851514A51601146496841EA20
:10065000006151601146096821F08071116000BF8E
:100660004A49096801F00071B1F1007FF8D04749AB
:10067000C96821F00301454AD1601146C96841F0BB
:100680000201D1601146C96821F4FE4141F4A05134
:10069000D1601146C96821F0700141F01001D160AC
:1006A0001146C96821F0C061D1601146C96841F0A6
:1006B0008071D1601146096841F08071116000BFFE
:1006C0003249096801F000710029F9D02F49896881
:1006D00021F003012D4A91601146896841F0030120
:1006E000916000BF2949896801F00C010C29F9D1FA
:1006F0002649896821F0F001244A916011468968F1
:1007000021F4E06191601146896821F460519160A3
:100710001146096821F08061116000BF1B4909681A
:1007200001F08061B1F1806FF8D01849096921F4B6
:10073000FE41164A11611146096941F4C051116127
:100740001146096941F4003111611146096941F40A
:10075000803111611146096841F08061116000BF6C
:100760000A49096801F080610029F9D007498831F8
:10077000096821F44001054AC2F888101146096E43
:1007800041F4001111667047002002400010024041
:100790001A48C06C40F008001849C864184800683E
:1007A00020F47050164908600846006840F4205054
:1007B000086013482030006840F0EE601049203196
:1007C00008600F480830006840F470500C49083148
:1007D0000860081D006820F47050091D0860084674
:1007E000006840F4A05008600548001D006820F033
:1007F00060000349091D08607047000000100240B6
:10080000000C004800B50D48806D40F400300B49E5
:1008100088650A488830006820F00C00C1F888001C
:100820000846D0F8880040F00400C1F88800FFF7BF
:10083000AFFF034800F010F800BD000000100240B8
:1008400000440040642242430723B2FBF3F100BF9F
:100850004A1E111EFCD17047016821F001010160A0
:10086000016821F010210160016821F4004101605C
:10087000416821F44051416042F28D01C16001683C
:1008800041F00C0101601E4988421BD1016841F012
:1008900020010160016821F040010160016821F040
:1008A00010010160016821F080010160016821F4FC
:1008B00080710160016821F040010160016821F050
:1008C000010101600F49884209D1016A41F04001EC
:1008D00001620D49096841F0C0010B4A11600168CD
:1008E00041F00101016000BFC16901F4001100295C
:1008F000FAD000BFC16901F480010029FAD0704725
:10090000004C00400044004008380140F0B5044667
:100910000E46174600250CE000BFE06900F080009D
:100920000028FAD0705D20854FF49670FFF78AFF9B
:100930006D1CBD42F0D300BFE06900F0400000280C
:10094000FAD0E06920F04000E061F0BDF8B505465E
:100950002448006800F02000002840D021480830DA
:100960000088C4B220480068022814D10D2C11D18F
:1009700000201D4908601DA0006800906846FFF730
:100980001FFD06463246694616481C38FFF7BEFF73
:100990000120F8BD22E0402C01DD5B2C03DB602C44
:1009A0001CDD7B2C1ADA104800682C5400210E48FC
:1009B0000068401C29540C4909686818FFF700FDBD
:1009C0000646094800682918324606481C38FFF7D1
:1009D0009DFF05480068401C0349086000BF0020D7
:1009E000D7E700001C44004044000020200D0A000E
:1009F000014601290BD10E48006800F0010030B11A
:100A00000B48006800200A4A106001207047052941
:100A10000BD10848006800F0010030B105480068BB
:100A20000020044A10600120F0E70020EEE70000FB
:100A3000102C0140100C004010B50446206A401EE6
:100A40002062206A10B9204600F016FA10BD8169B4
:100A5000002906DD41698160002101618169491E2B
:100A60008161704701468A680868805C70470000B1
:100A70000348406920F480700149486170470000D4
:100A8000001000480348406940F480700149486103
:100A9000704700000010004810B504200949486064
:100AA0000949486000F046F90321064800F0BCFA05
:100AB0000321054800F0B8FAFFF7E4FF00F0F4F96D
:100AC00010BD0000680000209800002000B55248CA
:100AD000806D40F00900504988650846006E40F47A
:100AE000006008664FF4FA5001068862000640690B
:100AF00040F001004861C820C862C006006A0020BA
:100B0000086208468069002088610846806946F6C8
:100B100068010843C90688610846006A40F0110070
:100B2000086208460068002008600846006840F037
:100B3000800008604FF4FA5038490860374814388C
:100B4000006840F001003549143908604FF47A70AC
:100B50003249091D086031480838006800202F49D3
:100B6000083908602D481038006800202B491039DA
:100B700008602A4828380068002028492839086079
:100B80000846006840F010000860244814380068E7
:100B900040F0010021491439086000202049086014
:100BA0001F481438006840F001001D4914390860DE
:100BB0001C481B49091D08601948083800680020B6
:100BC0001749083908601648103800680020144991
:100BD0001039086012482838006800201049283968
:100BE00008600846006840F0100008600C4814389F
:100BF000006840F001000A491439086014210420FB
:100C000000F0BDF94FF08040006840F001004FF067
:100C10008041086000BD000000100240282C014007
:100C2000280C004000127A001048C06C40F001000F
:100C30000E49C8644FF0904000680D4908404FF0DD
:100C4000904108600846006809490A3108434FF09E
:100C5000904108600846006A20F00F0008620846CC
:100C6000006A60F0EE000862704700000010024069
:100C7000F0FFFFAB70B504460D46206918B1204661
:100C800000F06CF804E001202061A0686061A561BB
:100C900070BD0000FFF7BAFCFFF7B4FDFFF7C4FF1B
:100CA000FFF762FCFFF712FF1248FFF789FB0446CB
:100CB000224610491048FFF729FEFFF7EDFE18E025
:100CC0000E48FFF743FE90B10C4800F0C1F808B998
:100CD000012000E00020044644B10948FFF770FB02
:100CE00005462A4606490448FFF710FE00BF00F0FB
:100CF000F7F8E5E700000020004400403F00002036
:100D00002600002070B504460D46606800F032F8F9
:100D1000284600F02FF8656000F00CF86068461B6C
:100D2000002E01DB304600E070424100204600F01A
:100D30007BF970BD70B50749486800F016F80446A5
:100D40000549486800F011F805462946204600F09C
:100D500016F970BD680000209800002010B5044608
:100D6000FFF786FE00F0AAF810BD014601EB410036
:100D7000001D704730B589B00446224605A101A880
:100D8000FFF798FA05462A4601A90448FFF7BEFD79
:100D900009B030BD25640D0A000000000044004089
:100DA00070B504460D46502D01D0702D0CD1A06AAF
:100DB00040B9E06808B9206A20B10120E06220460D
:100DC00000F066F8012070BD432D01D0632D0ED1D7
:100DD000A06A50B9E06808B9206A30B1E06A10B181
:100DE000204600F049F80020E0620120EBE7522D98
:100DF00001D0722D0BD1E06838B96068002804DD9D
:100E00006068411E2046FFF77DFF0120DBE74C2D87
:100E100001D06C2D0BD1E06838B96068052804DA80
:100E20006068411C2046FFF76DFF0120CBE74E2D87
:100E300001D06E2D01D10120C5E7422D01D0622DD8
:100E400004D1204600F044F80120BCE70020BAE7B6
:100E500010B5044621780648FFF7A2FF30B161784B
:100E60000448FFF79DFF08B1012010BD0020FCE7FA
:100E7000680000209800002010B504460120E060C2
:100E8000E06900F0B9F8FFF7FDFD00F00DF810BDC6
:100E900010B504460020E060E06900F089F8FFF733
:100EA000E7FD00F001F810BD0348006820F00400E1
:100EB00001490860704700001404004803480068B6
:100EC00040F0040001490860704700001404004825
:100ED000002181600121C1600021C16270470000D2
:100EE00010B50748FFF7BEFD04460648FFF7BAFDF8
:100EF00004461CB12146034800F006F810BD00006E
:100F0000680000209800002070B504460D46E06897
:100F100048B305F0E000402810D003DC38B12028A9
:100F20001CD105E080280FD0A02817D112E015E0D1
:100F300005F01F012046FFF7E5FE0FE005F01F0159
:100F4000204600F071F809E005F01F012046FFF788
:100F500091FE03E02046FFF77AFD00BF00BFA068C6
:100F6000401CA06009E0E06A00B170BDE069FFF7D5
:100F70003FFD10B12046FFF75FFD00BFF5E74FF0E2
:100F80008042526B00224FF080435A631A46526BE4
:100F900002435A631A46926B00229A631A46926B76
:100FA0000A439A631A46526942F001025A61704735
:100FB00001280CD10E49096800210D4A11600C4925
:100FC0001039096841F00101094A103A11600528F9
:100FD0000CD1084909680021064A116005491039F9
:100FE000096841F00101034A103A1160704700009E
:100FF000102C0140100C0040012806D10849096856
:101000004FF6FE721140064A1160052806D10549C7
:1010100009684FF6FE721140024A116070470000E5
:10102000002C0140000C004070B504460D46681CC1
:1010300020622046FFF72CFF70BD4FF04070E1EEBC
:10104000100A70476410000800000020C80000006B
:10105000C40100082C110008C80000206006000030
:10106000E00100080A0A4C6162203261202D2059FB
:10107000757261204B696D2C204161726F6E204842
:10108000616C6C696E670D0A0A00557365722063A6
:101090006F6D6D616E64206572726F722873292E98
:1010A0000D0A0000000000000000000020252023A1
:1010B000802124A0202240234022235F5F5F240060
:1010C00020FF2500205F9F2520A02200480000204F
:1010D000FFFFFFFF00000000000000000000000014
:1010E00000000000000000000100000000000000FF
:1010F0000000000000000000000000006000002070
:10110000FFFFFFFF000000000000000000000000E3
:1011100000000000000000000500000000000000CA
:0C112000000000000000000000000000C3
:040000050800018965
:00000001FF
