:020000040800F2
:10000000F8060020310200086D0200086F020008A7
:100010007102000873020008750200080000000069
:10002000000000000000000000000000770200084F
:1000300079020008000000007B0200087D02000831
:100040007F0200087F0200087F0200087F0200088C
:100050007F0200087F0200087F0200087F0200087C
:100060007F0200087F0200087F0200087F0200086C
:100070007F0200087F0200087F0200087F0200085C
:100080007F0200087F0200087F0200087F0200084C
:100090007F0200087F0200087F0200087F0200083C
:1000A0007F0200087F0200087F0200087F0200082C
:1000B0007F0200087F0200087F0200087F0200081C
:1000C0007F0200087F0200087F0200087F0200080C
:1000D0007F0200087F0200087F0200087F020008FC
:1000E0007F0200087F0200087F0200087F020008EC
:1000F0007F0200087F0200087F0200087F020008DC
:100100007F0200087F0200087F0200087F020008CB
:100110007F0200087F0200087F0200087F020008BB
:100120007F0200087F0200087F0200087F020008AB
:100130007F0200087F0200087F0200087F0200089B
:100140007F0200087F0200087F0200087F0200088B
:100150007F0200087F0200087F0200087F0200087B
:100160007F0200087F0200087F0200087F0200086B
:100170007F0200087F0200087F02000800000000E4
:100180007F0200087F02000800F002F800F041F84A
:100190000AA090E8000C82448344AAF10107DA45E2
:1001A00001D100F036F8AFF2090EBAE80F0013F0F3
:1001B000010F18BFFB1A43F001031847D4090000D0
:1001C000F4090000103A24BF78C878C1FAD8520761
:1001D00024BF30C830C144BF04680C6070470000C1
:1001E0000023002400250026103A28BF78C1FBD840
:1001F000520728BF30C148BF0B607047642900F028
:10020000A380002070471FB500F0BDFC1FBD10B5D6
:1002100010BD00F06EF91146FFF7F5FF00F030FC5D
:1002200000F08CF903B4FFF7F2FF03BC00F094F97F
:1002300016481749174B99423CBF50F8042B41F818
:10024000042BF8D314494FF000028B4238BF43F817
:10025000042BFAD3DFF84400016841F47001016017
:10026000BFF34F8FBFF36F8F0D480047FEE7FEE7E8
:10027000FEE7FEE7FEE7FEE7FEE7FEE7FEE7FEE756
:1002800008480949094A0A4B70470000B00B0008AA
:100290000000002094000020F806002088ED00E017
:1002A00089010008F8000020F8060020F80200206C
:1002B000F80200200FB41CB5084B06AA7B4469461F
:1002C0000090059800F0FDF804460020694600F013
:1002D0000BF920461CBC5DF814FB0000290200004D
:1002E0002DE9F0410E460446002020622046E168D8
:1002F000884730B3252805D0D4E901219047206AEA
:10030000401CF2E7E168204600278847050018D026
:10031000A5F14100192802D820354FF40067324674
:10032000294620462760FFF769FF40B1012804D025
:10033000F61D26F007060836D8E7361DD6E728460C
:10034000DAE7206ABDE8F0812DE9F0410646002495
:1003500010687529314616A510D0AFF3008000282B
:1003600002DA404213A507E031688A0701D512A5D9
:1003700002E0490704D511A5012401E0AFF3008094
:1003800000210A2206F1240709E0B0FBF2FCB0FBD1
:10039000F2F302FB1C00303078541846491C002848
:1003A000F3D123462A463046BDE8F04100F02AB892
:1003B000000000002D0000002B00000020000000C5
:1003C00010B5431C02E010F8011B71B18107FAD18E
:1003D0004FF0013202C88C1A8C4314EAC211F9D0D2
:1003E000C01A0A0603D0C01E10BDC01A10BD0A04F0
:1003F00001D0801E10BD0902FCD0401E10BD704708
:10040000704770472DE9F0470D46994692460446DD
:1004100000F124080168880604D5E06921F0100184
:10042000216000E00120A84201DD471B00E0002719
:10043000A1697A1902EB0900081AA0612078C006A8
:1004400002D42046AFF30080002608E0D4E9012161
:100450001AF806009047206A401C761C20624E4520
:10046000F4DB2078C0060AD52046AFF3008006E012
:10047000D4E9012130209047206A401C2062381EB8
:10048000A7F10107F4DC07E0D4E9012118F8050021
:100490009047206A401C2062281EA5F10105F3DC6C
:1004A0002046AFF300802078000602D50220BDE888
:1004B000F0870120FBE7000001694A1C026108780F
:1004C000704700B58FB0CDE9013100210591054994
:1004D0007944CDE9031011466846FFF701FF0FB0DC
:1004E00000BD0000E5FFFFFF0A6802F8010B0A608B
:1004F0007047754600F02CF8AE4605006946534635
:1005000020F00700854618B020B5FFF7B9FEBDE81A
:1005100020404FF000064FF000074FF000084FF06A
:10052000000B21F00701AC46ACE8C009ACE8C009FB
:10053000ACE8C009ACE8C0098D46704710B5044668
:10054000AFF300802046BDE81040FFF76BBE00000F
:10055000004870479400002001491820ABBEFEE718
:1005600026000200704700005E49096821F007017B
:100570005C4A11601146096841F0020111605A4954
:10058000096841F48071584A116000BF56490968F2
:1005900001F480610029F9D010205349496821F005
:1005A000F851514A51601146496841EA0061516071
:1005B0001146096821F08071116000BF4A4909683D
:1005C00001F00071B1F1007FF8D04749C96821F00E
:1005D0000301454AD1601146C96841F00201D1606A
:1005E0001146C96821F4FE4141F4A051D160114681
:1005F000C96821F0700141F01001D1601146C9684D
:1006000021F0C061D1601146C96841F08071D160AC
:100610001146096841F08071116000BF32490968D4
:1006200001F000710029F9D02F49896821F00301F8
:100630002D4A91601146896841F00301916000BF25
:100640002949896801F00C010C29F9D126498968EA
:1006500021F0F001244A91601146896821F4E0619B
:1006600091601146896821F46051916011460968D2
:1006700021F08061116000BF1B49096801F08061B1
:10068000B1F1806FF8D01849096921F4FE41164A8A
:1006900011611146096941F4C0511161114609699E
:1006A00041F4003111611146096941F48031116151
:1006B0001146096841F08061116000BF0A4909686C
:1006C00001F080610029F9D007498831096821F4D7
:1006D0004001054AC2F888101146096E41F4001124
:1006E0001166704700200240001002401A48C06C9A
:1006F00040F008001849C8641848006820F4705099
:10070000164908600846006840F420500860134805
:100710002030006840F0EE601049203108600F483A
:100720000830006840F470500C4908310860081D1A
:10073000006820F47050091D08600846006840F405
:10074000A05008600548001D006820F060000349C3
:10075000091D08607047000000100240000C0048AE
:1007600000B50D48806D40F400300B4988650A489B
:100770008830006820F00C00C1F888000846D0F8E6
:10078000880040F00400C1F88800FFF7AFFF03487D
:1007900000F010F800BD00000010024000440040CE
:1007A000642242430723B2FBF3F100BF4A1E111E2D
:1007B000FCD17047016821F001010160016821F05E
:1007C00010210160016821F400410160416821F4B9
:1007D0004051416042F28D01C160016841F00C015D
:1007E00001601E4988421BD1016841F0200101606F
:1007F000016821F040010160016821F010010160F1
:10080000016821F080010160016821F480710160BC
:10081000016821F040010160016821F001010160DF
:100820000F49884209D1016A41F0400101620D4936
:10083000096841F0C0010B4A1160016841F00101F3
:10084000016000BFC16901F400110029FAD000BFA6
:10085000C16901F480010029FAD07047004C0040C2
:100860000044004008380140F0B504460E461746E3
:1008700000250CE000BFE06900F080000028FAD0FD
:10088000705D20854FF49670FFF78AFF6D1CBD42A6
:10089000F0D300BFE06900F040000028FAD0E06922
:1008A00020F04000E061F0BDF8B504461F48006844
:1008B00000F02000002837D01C4808300088C5B25E
:1008C0001B480068022818D10D2D15D100201849A9
:1008D0000968605416490860607016A000680090AE
:1008E0006846FFF76DFD0646324669460F481C38DC
:1008F000FFF7BAFF0120F8BD15E00D480068255448
:100900000B4909686018FFF75BFD06460848006858
:100910002118324605481C38FFF7A6FF0448006836
:10092000401C0349086000BF0020E4E71C4400406D
:1009300034000020200D0A008169002906DD41698C
:100940008160002101618169491E81617047014612
:100950008A680868805C70472F48806D40F0090005
:100960002D4988654FF4FA500106886200064069F7
:1009700040F001004861C820C862C006006A00203B
:10098000086208468069002088610846806946F64A
:1009900068010843C90688610846006A40F01100F2
:1009A000086208460068002008600846006840F0B9
:1009B0008000086000201949086018481438006851
:1009C00040F0010015491439086015481349091D04
:1009D000086012480838006800201049083908608B
:1009E0000E481038006800200C49103908600B4888
:1009F000283800680020094928390860084600683E
:100A000040F01000086005481438006840F001000C
:100A1000024914390860704700100240280C004059
:100A200000127A001048C06C40F001000E49C86402
:100A30004FF0904000680D4908404FF09041086029
:100A40000846006809490A3108434FF090410860A0
:100A50000846006A20F00F0008620846006A60F04D
:100A6000EE0008627047000000100240F0FFFFAB8C
:100A7000026922B901220261826842618161704784
:100A8000FFF772FDFFF76CFEFFF7CCFFFFF764FF87
:100A90000748FFF795FC0446224605490548FFF73D
:100AA000E3FE04E00448FFF7FFFE00F023F8F9E757
:100AB00009000020004400402F00002041607047E2
:100AC0000021C1607047000030B589B0044622465D
:100AD00005A101A8FFF7EEFB05462A4601A9044837
:100AE000FFF7C2FE09B030BD25640D0A000000000A
:100AF0000044004010B50548FFF729FF04461CB12B
:100B00002146024800F004F810BD00005400002007
:100B100070B504460D46A068FFF7D6FFE06828B31D
:100B200005F0E000402810D003DC38B120281CD1AB
:100B300005E080280FD0A02817D112E015E005F0BD
:100B40001F012046FFF7BAFF0FE005F01F01204606
:100B500000F010F809E005F01F012046FFF788FFBC
:100B600003E02046FFF7E8FE00BF00BFA068401C7E
:100B7000A06070BD00B502460B46581CD0611046FF
:100B8000FFF79EFF00BD4FF04070E1EE100A704786
:100B9000B00B00080000002094000000C401000811
:100BA000440C00089400002064060000E0010008E6
:100BB00000000000B6030000000A0A4C6162203207
:100BC00061202D2059757261204B696D2C20416187
:100BD000726F6E2048616C6C696E670D0A0A0000C6
:100BE0000000000000000000209F21A02220212200
:100BF000232425242322212080228223A025A02211
:100C00000000000038000020FFFFFFFF0000000090
:100C100001000000000000000000000000000000D3
:100C2000000000003D000020FFFFFFFF000000006B
:100C300001000000000000000000000000000000B3
:040C400000000000B0
:040000050800018965
:00000001FF
