:020000040800F2
:10000000F8060020290200086502000867020008BF
:10001000690200086B0200086D0200080000000081
:100020000000000000000000000000006F02000857
:100030007102000800000000730200087502000849
:1000400077020008770200087702000877020008AC
:10005000770200087702000877020008770200089C
:10006000770200087702000877020008770200088C
:10007000770200087702000877020008770200087C
:10008000770200087702000877020008770200086C
:10009000770200087702000877020008770200085C
:1000A000770200087702000877020008770200084C
:1000B000770200087702000877020008770200083C
:1000C000770200087702000877020008770200082C
:1000D000770200087702000877020008770200081C
:1000E000770200087702000877020008770200080C
:1000F00077020008770200087702000877020008FC
:1001000077020008770200087702000877020008EB
:1001100077020008770200087702000877020008DB
:1001200077020008770200087702000877020008CB
:1001300077020008770200087702000877020008BB
:1001400077020008770200087702000877020008AB
:10015000770200087702000877020008770200089B
:10016000770200087702000877020008770200088B
:1001700077020008770200087702000800000000FC
:10018000770200087702000800F002F800F03CF85F
:100190000AA090E8000C82448344AAF10107DA45E2
:1001A00001D100F031F8AFF2090EBAE80F0013F0F8
:1001B000010F18BFFB1A43F0010318479408000011
:1001C000B4080000103A24BF78C878C1FAD85207A2
:1001D00024BF30C830C144BF04680C6070470000C1
:1001E0000023002400250026103A28BF78C1FBD840
:1001F000520728BF30C148BF0B6070471FB500F0E1
:1002000021FC1FBD10B510BD00F072F81146FFF7BC
:10021000F5FF00F059FB00F090F803B4FFF7F2FF90
:1002200003BC00F097F8000016481749174B994295
:100230003CBF50F8042B41F8042BF8D314494FF07D
:1002400000028B4238BF43F8042BFAD3DFF8440096
:10025000016841F470010160BFF34F8FBFF36F8FEE
:100260000D480047FEE7FEE7FEE7FEE7FEE7FEE794
:10027000FEE7FEE7FEE7FEE708480949094A0A4BA0
:1002800070470000700A0008000000209400002061
:10029000F806002088ED00E089010008F800002041
:1002A000F8060020F8020020F802002010B5431CD8
:1002B00002E010F8011B71B18107FAD14FF0013251
:1002C00002C88C1A8C4314EAC211F9D0C01A0A066B
:1002D00003D0C01E10BDC01A10BD0A0401D0801E7C
:1002E00010BD0902FCD0401E10BD7047704770471A
:1002F000754600F02BF8AE4605006946534620F0DF
:100300000700854618B020B5FFF7B6FFBDE82040CE
:100310004FF000064FF000074FF000084FF0000BC1
:1003200021F00701AC46ACE8C009ACE8C009ACE874
:10033000C009ACE8C0098D46704710B50446AFF35C
:1003400000802046BDE81040FFF767BF00487047B7
:100350009400002001491820ABBEFEE726000200F1
:10036000704700005E49096821F007015C4A11608E
:100370001146096841F0020111605A49096841F4C7
:100380008071584A116000BF5649096801F48061C4
:100390000029F9D010205349496821F0F851514AF9
:1003A00051601146496841EA00615160114609688F
:1003B00021F08071116000BF4A49096801F00071A5
:1003C000B1F1007FF8D04749C96821F00301454ADF
:1003D000D1601146C96841F00201D1601146C96877
:1003E00021F4FE4141F4A051D1601146C96821F0C9
:1003F000700141F01001D1601146C96821F0C0615F
:10040000D1601146C96841F08071D1601146096818
:1004100041F08071116000BF3249096801F000713C
:100420000029F9D02F49896821F003012D4A9160F4
:100430001146896841F00301916000BF294989682C
:1004400001F00C010C29F9D12649896821F0F0014D
:10045000244A91601146896821F4E0619160114657
:10046000896821F4605191601146096821F080612A
:10047000116000BF1B49096801F08061B1F1806F14
:10048000F8D01849096921F4FE41164A1161114654
:10049000096941F4C05111611146096941F4003103
:1004A00011611146096941F48031116111460968F1
:1004B00041F08061116000BF0A49096801F0806164
:1004C0000029F9D007498831096821F44001054A1B
:1004D000C2F888101146096E41F400111166704788
:1004E00000200240001002401A48C06C40F0080092
:1004F0001849C8641848006820F47050164908600C
:100500000846006840F42050086013482030006816
:1005100040F0EE601049203108600F480830006854
:1005200040F470500C4908310860081D006820F440
:100530007050091D08600846006840F4A05008602B
:100540000548001D006820F060000349091D08608F
:100550007047000000100240000C004800B50D4834
:10056000806D40F400300B4988650A488830006887
:1005700020F00C00C1F888000846D0F8880040F050
:100580000400C1F88800FFF7AFFF034800F010F83F
:1005900000BD0000001002400044004064224243BD
:1005A0000723B2FBF3F100BF4A1E111EFCD17047B6
:1005B000016821F001010160016821F01021016052
:1005C000016821F400410160416821F4405141601B
:1005D00042F28D01C160016841F00C0101601E49C9
:1005E00088421BD1016841F020010160016821F0BF
:1005F00040010160016821F010010160016821F0F3
:1006000080010160016821F480710160016821F0BE
:1006100040010160016821F0010101600F49884239
:1006200009D1016A41F0400101620D49096841F0B8
:10063000C0010B4A1160016841F00101016000BF77
:10064000C16901F400110029FAD000BFC16901F4A9
:1006500080010029FAD07047004C0040004400405F
:1006600008380140F0B504460E46174600250CE058
:1006700000BFE06900F080000028FAD0705D20859E
:100680004FF49670FFF78AFF6D1CBD42F0D300BF98
:10069000E06900F040000028FAD0E06920F0400056
:1006A000E061F0BDF8B504461F48006800F0200086
:1006B000002837D01C4808300088C5B21B480068A5
:1006C000022818D10D2D15D1002018490968605451
:1006D00016490860607016A0006800906846FFF731
:1006E000E5FD0646324669460F481C38FFF7BAFF5B
:1006F0000120F8BD15E00D48006825540B49096834
:100700006018FFF7D3FD06460848006821183246F6
:1007100005481C38FFF7A6FF04480068401C034941
:10072000086000BF0020E4E71C44004034000020C3
:10073000200D0A000121C16070478169002906DD92
:1007400041698160002101618169491E81617047B1
:1007500001468A680868805C7047000010B5002078
:100760000A49486001200A49486000F0DFF8052185
:10077000064800F05EF90521054800F05AF90348E3
:10078000FFF7D8FF0248FFF7D5FF10BD5400002047
:100790007400002000B53248806D40F009003049F7
:1007A00088654FF44870410688624006406940F011
:1007B000010048614FF4FA60C8628006006A0020B8
:1007C000086208468069002088610846806946F60C
:1007D00068010843C90688610846006A40F01100B4
:1007E000086208460068002008600846006840F07B
:1007F0008000086000201B4908601A48143800680F
:1008000040F0010017491439086017481549091DBF
:100810000860144808380068002012490839086048
:1008200010481038006800200E49103908600D4843
:100830002838006800200B492839086008460068FD
:1008400040F01000086007481438006840F00100CC
:10085000044914390860D221262000F0CCF800BDEC
:1008600000100240280C004000127A001048C06CB2
:1008700040F001000E49C8644FF0904000680D49F7
:1008800008404FF0904108600846006809490A3165
:1008900008434FF0904108600846006A20F00F00BE
:1008A00008620846006A60F0EE00086270470000C7
:1008B00000100240F0FFFFAB026922B90122026181
:1008C0008268426181617047FFF74CFDFFF746FE89
:1008D000FFF7CCFFFFF75EFF0848FFF7E7FC044691
:1008E000224606490648FFF7BDFEFFF737FF04E042
:1008F0000448FFF7D7FE00F037F8F9E709000020B9
:10090000004400402F00002070B504460D4665608D
:1009100000F00CF86068461B002E01DB304600E05A
:1009200070420146204600F084F870BD70B507495A
:10093000486800F012F804460549486800F00DF8D0
:1009400005462946204600F056F870BD54000020A8
:10095000740000200021C1607047014601EB0110C6
:10096000262202EB4000704710B50948FFF7F0FE61
:1009700004461CB12146064800F00EF80548FFF772
:10098000E7FE04461CB12146024800F005F810BD00
:10099000540000207400002070B505460C46E8683D
:1009A00040B304F0E000402810D003DC38B1202828
:1009B0001CD105E080280FD0A02817D112E015E047
:1009C00004F01F012846FFF79FFF0FE004F01F010E
:1009D000284600F02EF809E004F01F012846FFF732
:1009E0006BFF03E02846FFF7A8FE00BF00BFA86822
:1009F000401CA86070BD4FF08042526B00224FF047
:100A000080435A631A46526B02435A631A46926BEA
:100A100000229A631A46926B0A439A631A465269F5
:100A200042F001025A611A46126842F001021A604D
:100A3000704700B502460B46581CD0611046FFF7C0
:100A400089FF00BD4FF04070E1EE100A70470000D2
:100A5000700A00080000002094000000C401000893
:100A6000040B00089400002064060000E001000868
:100A700000000000B6030000000A0A4C6162203248
:100A800061202D2059757261204B696D2C204161C8
:100A9000726F6E2048616C6C696E670D0A0A000007
:100AA0000000000000000000209F21A02200202163
:100AB00022232425242322212080228223A025A052
:100AC0002200000038000020FFFFFFFF00000000B0
:100AD0000000000000000000000000000000000016
:100AE000000000003E000020FFFFFFFF00000000AC
:100AF00000000000000000000000000000000000F6
:040B000000000000F1
:040000050800018965
:00000001FF
