:020000040800F2
:100000003007002029020008650200086702000886
:10001000690200086B0200086D0200080000000081
:100020000000000000000000000000006F02000857
:100030007102000800000000730200087502000849
:1000400077020008770200087702000877020008AC
:10005000770200087702000877020008770200089C
:10006000770200087702000877020008770200088C
:10007000770200087702000877020008770200087C
:10008000770200087702000877020008770200086C
:10009000770200087702000877020008770200085C
:1000A000770200087702000877020008770200084C
:1000B000770200087702000877020008770200083C
:1000C000770200087702000877020008770200082C
:1000D000770200087702000877020008770200081C
:1000E000770200087702000877020008770200080C
:1000F00077020008770200087702000877020008FC
:1001000077020008770200087702000877020008EB
:1001100077020008770200087702000877020008DB
:1001200077020008770200087702000877020008CB
:1001300077020008770200087702000877020008BB
:1001400077020008770200087702000877020008AB
:10015000770200087702000877020008770200089B
:10016000770200087702000877020008770200088B
:1001700077020008770200087702000800000000FC
:10018000770200087702000800F002F800F03CF85F
:100190000AA090E8000C82448344AAF10107DA45E2
:1001A00001D100F031F8AFF2090EBAE80F0013F0F8
:1001B000010F18BFFB1A43F001031847880D000018
:1001C000A80D0000103A24BF78C878C1FAD85207A9
:1001D00024BF30C830C144BF04680C6070470000C1
:1001E0000023002400250026103A28BF78C1FBD840
:1001F000520728BF30C148BF0B6070471FB500F0E1
:100200009CFE1FBD10B510BD00F0A4F81146FFF70D
:10021000F5FF00F093FC00F0C2F803B4FFF7F2FF23
:1002200003BC00F0C9F8000016481749174B994263
:100230003CBF50F8042B41F8042BF8D314494FF07D
:1002400000028B4238BF43F8042BFAD3DFF8440096
:10025000016841F470010160BFF34F8FBFF36F8FEE
:100260000D480047FEE7FEE7FEE7FEE7FEE7FEE794
:10027000FEE7FEE7FEE7FEE708480949094A0A4BA0
:1002800070470000640F000800000020CC00002030
:100290003007002088ED00E08901000830010020CF
:1002A00030070020300300203003002010B5431C2D
:1002B00002E010F8011B71B18107FAD14FF0013251
:1002C00002C88C1A8C4314EAC211F9D0C01A0A066B
:1002D00003D0C01E10BDC01A10BD0A0401D0801E7C
:1002E00010BD0902FCD0401E10BD10B5203AC0F070
:1002F0000B80B1E81850203AA0E81850B1E8185027
:10030000A0E81850BFF4F5AF5FEA027C24BFB1E863
:100310001850A0E8185044BF18C918C0BDE81040D4
:100320005FEA827C24BF51F8043B40F8043B08BFDD
:100330007047D20728BF31F8023B48BF11F8012BA4
:1003400028BF20F8023B48BF00F8012B70477047D8
:1003500070477047754600F02BF8AE4605006946B9
:10036000534620F00700854618B020B5FFF784FFFC
:10037000BDE820404FF000064FF000074FF00008A6
:100380004FF0000B21F00701AC46ACE8C009ACE827
:10039000C009ACE8C009ACE8C0098D46704710B58B
:1003A0000446AFF300802046BDE81040FFF735BF9C
:1003B00000487047CC00002001491820ABBEFEE782
:1003C00026000200704700002548C06C40F0120073
:1003D0002349C8642348006820F0300021490860A0
:1003E0000846006840F0100008601E4808300068A9
:1003F00020F030001B49083108600846006840F0D2
:1004000030000860081F006820F04000091F0860E5
:1004100014480C30006820F0300012490C3108609C
:100420001148006820F440300F4908600846006811
:1004300040F4803008600846806820F440308860CE
:100440000846806840F4403088600846406820F4E0
:10045000802048600846C06820F44030C86070477B
:100460000010024000040048001000485E4909687E
:1004700021F007015C4A11601146096841F0020150
:1004800011605A49096841F48071584A116000BFEF
:100490005649096801F480610029F9D010205349B8
:1004A000496821F0F851514A51601146496841EAC2
:1004B000006151601146096821F08071116000BF30
:1004C0004A49096801F00071B1F1007FF8D047494D
:1004D000C96821F00301454AD1601146C96841F05D
:1004E0000201D1601146C96821F4FE4141F4A051D6
:1004F000D1601146C96821F0700141F01001D1604E
:100500001146C96821F0C061D1601146C96841F047
:100510008071D1601146096841F08071116000BF9F
:100520003249096801F000710029F9D02F49896822
:1005300021F003012D4A91601146896841F00301C1
:10054000916000BF2949896801F00C010C29F9D19B
:100550002649896821F0F001244A91601146896892
:1005600021F4E06191601146896821F46051916045
:100570001146096821F08061116000BF1B490968BC
:1005800001F08061B1F1806FF8D01849096921F458
:10059000FE41164A11611146096941F4C0511161C9
:1005A0001146096941F4003111611146096941F4AC
:1005B000803111611146096841F08061116000BF0E
:1005C0000A49096801F080610029F9D0074988319A
:1005D000096821F44001054AC2F888101146096EE5
:1005E00041F40011116670470020024000100240E3
:1005F0001A48C06C40F008001849C86418480068E0
:1006000020F47050164908600846006840F42050F5
:10061000086013482030006840F0EE601049203137
:1006200008600F480830006840F470500C490831E9
:100630000860081D006820F47050091D0860084615
:10064000006840F4A05008600548001D006820F0D4
:1006500060000349091D0860704700000010024057
:10066000000C004800B50D48806D40F400300B4987
:1006700088650A488830006820F00C00C1F88800BE
:100680000846D0F8880040F00400C1F88800FFF761
:10069000AFFF034800F010F800BD0000001002405A
:1006A00000440040642242430723B2FBF3F100BF41
:1006B0004A1E111EFCD17047016821F00101016042
:1006C000016821F010210160016821F400410160FE
:1006D000416821F44051416042F28D01C1600168DE
:1006E00041F00C0101601E4988421BD1016841F0B4
:1006F00020010160016821F040010160016821F0E2
:1007000010010160016821F080010160016821F49D
:1007100080710160016821F040010160016821F0F1
:10072000010101600F49884209D1016A41F040018D
:1007300001620D49096841F0C0010B4A116001686E
:1007400041F00101016000BFC16901F400110029FD
:10075000FAD000BFC16901F480010029FAD07047C6
:10076000004C00400044004008380140F0B5044609
:100770000E46174600250CE000BFE06900F080003F
:100780000028FAD0705D20854FF49670FFF78AFF3D
:100790006D1CBD42F0D300BFE06900F040000028AE
:1007A000FAD0E06920F04000E061F0BDF8B5054600
:1007B0002448006800F02000002840D0214808307C
:1007C0000088C4B220480068022814D10D2C11D131
:1007D00000201D4908601DA0006800906846FFF7D2
:1007E00065FD06463246694616481C38FFF7BEFFCF
:1007F0000120F8BD22E0402C01DD5B2C03DB602CE6
:100800001CDD7B2C1ADA104800682C5400210E489D
:100810000068401C29540C4909686818FFF746FD18
:100820000646094800682918324606481C38FFF772
:100830009DFF05480068401C0349086000BF002078
:10084000D7E700001C44004044000020200D0A00AF
:10085000014601290BD10E48006800F0010030B1BB
:100860000B48006800200A4A1060012070470529E3
:100870000BD10848006800F0010030B1054800685D
:100880000020044A10600120F0E70020EEE700009D
:10089000102C0140100C004030B585B005461422E4
:1008A00009A16846FFF721FD00F040F800F07AFA50
:1008B0006846FFF7FBFC0446224669460748FFF7F7
:1008C00055FF05B030BD0000436F6D6D616E642053
:1008D0006572726F722E0D0A000000000044004025
:1008E00010B50446206A401E2062206A10B92046D6
:1008F00000F034FA10BD8169002906DD416981608C
:10090000002101618169491E8161704701468A6841
:100910000868805C704700000348406920F48070DC
:1009200001494861704700000010004803484069D1
:1009300040F4807001494861704700000010004891
:1009400010B50420094948600949486000F042F99F
:100950000321064800F0E8FA0321054800F0E4FA14
:10096000FFF7E4FF00F014FA10BD00006C00002057
:100970009C00002000B55248806D40F009005049AD
:1009800088650846006E40F4006008664FF44870C1
:10099000410688624006406940F0010048614FF41A
:1009A000FA60C8628006006A002008620846806912
:1009B000002088610846806946F668010843C90638
:1009C00088610846006A40F0110008620846006825
:1009D000002008600846006840F0800008604FF47E
:1009E000FA503849086037481438006840F0010070
:1009F0003449143908604FF47A703249091D08608F
:100A000030480838006800202E49083908602D4811
:100A10001038006800202B49103908602948283810
:100A2000006800202749283908600846006840F01F
:100A30001000086023481438006840F00100214984
:100A4000143908600020204908601F4814380068E5
:100A500040F001001C49143908601C481A49091D5E
:100A600008601948083800680020174908390860EC
:100A700015481038006800201349103908601248E2
:100A800028380068002010492839086008460068A6
:100A900040F0100008600C481438006840F0010075
:100AA0000949143908601421042000F0E8F94FF0D6
:100AB0008040006840F001004FF08041086000BDB8
:100AC00000100240282C0140280C004000127A003F
:100AD0001048C06C40F001000E49C8644FF09040CF
:100AE00000680D4908404FF09041086008460068D2
:100AF00009490A3108434FF0904108600846006AEE
:100B000020F00F0008620846006A60F0EE000862FC
:100B10007047000000100240F0FFFFAB70B50446C4
:100B20000D46206918B1204600F068F804E0012065
:100B30002061A0686061A56170BD0000FFF796FCB0
:100B4000FFF790FDFFF7C4FFFFF73EFCFFF712FF32
:100B50001248FFF7ABFB0446224610491048FFF746
:100B600005FEFFF7EDFE18E00E48FFF71FFE90B1FF
:100B70000C4800F0DBF808B9012000E00020044632
:100B800044B10948FFF792FB05462A460649044846
:100B9000FFF7ECFD00BF00F017F9E5E700000020CB
:100BA000004400403F0000202600002070B50446AD
:100BB0000D466168481B002801DB014600E0414208
:100BC0004E00656000F006F83146204600F0ACF9B2
:100BD00070BD000070B50749486800F035F804465C
:100BE0000549486800F030F805462946204600F0DF
:100BF00046F970BD6C0000209C00002030B587B025
:100C00000546182209A101A8FFF76FFBFFF784FE34
:100C100000F0C8F801A8FFF749FB0446224601A9E5
:100C20000848FFF7A3FD07B030BD00004E657374A0
:100C30006564206C6F6F70206572726F722E0D0A82
:100C40000000000000440040014609B9322070470E
:100C5000012901D15020FAE7022901D16E20F6E7DF
:100C6000032901D18C20F2E7042901D1AA20EEE763
:100C7000052901D1C820EAE73220E8E770B504462B
:100C80000D46502D01D0702D0CD1A06A40B9E068FE
:100C900008B9206A20B10120E062204600F06AF81D
:100CA000012070BD432D01D0632D0ED1A06A50B933
:100CB000E06808B9206A30B1E06A10B1204600F05F
:100CC0004DF80020E0620120EBE7522D01D0722D9B
:100CD0000BD1E06838B96068002804DD6068411E07
:100CE0002046FFF763FF0120DBE74C2D01D06C2D80
:100CF0000BD1E06838B96068052804DA6068411CE7
:100D00002046FFF753FF0120CBE74E2D01D06E2D7B
:100D100001D10120C5E7422D01D0622D04D120462A
:100D200000F04AF80120BCE70020BAE710B50446FD
:100D300021780848FFF7A2FF30B161780648FFF735
:100D40009DFF08B1012010BD0248FFF7A5FD00205E
:100D5000F9E700006C0000209C00002010B504465C
:100D60000120E060E06900F0C7F8FFF7DFFD00F068
:100D70000FF810BD10B504460020E060E06900F0F7
:100D800097F8E06A18B1FFF7C7FD00F001F810BD51
:100D90000348006820F00400014908607047000023
:100DA000140400480348006840F00400014908604A
:100DB0007047000014040048002181600121C160D7
:100DC0000021C1627047000010B50948FFF79EFD81
:100DD00004461CB12146064800F00EF80548FFF70E
:100DE00095FD04461CB12146024800F005F810BDEF
:100DF0006C0000209C00002070B504460D46E068A1
:100E000080B305F0E00040280FD003DCE8B12028D3
:100E10001FD104E080280ED0A0281AD111E005F0DF
:100E20001F012046FFF7C2FE17E005F01F01204614
:100E300000F07AF811E005F01F012046FFF76EFE82
:100E40000BE02046FFF757FD07E02046FFF792FF33
:100E500003E02046FFF720FD00BF00BFA068401C54
:100E6000A0600AE0FFE7E06A00B170BDE069FFF74B
:100E7000EFFC10B12046FFF733FD00BFF5E74FF060
:100E80008042526B00224FF080435A631A46526BE5
:100E900002435A631A46926B00229A631A46926B77
:100EA0000A439A631A46526942F001025A61704736
:100EB00001280CD10E49096800210D4A11600C4926
:100EC0001039096841F00101094A103A11600528FA
:100ED0000CD1084909680021064A116005491039FA
:100EE000096841F00101034A103A1160704700009F
:100EF000102C0140100C0040012806D10849096857
:100F00004FF6FE721140064A1160052806D10549C8
:100F100009684FF6FE721140024A116070470000E6
:100F2000002C0140000C004070B504460D46681CC2
:100F300020622046FFF71EFF70BD4FF04070E1EECB
:100F4000100A7047640F000800000020CC00000069
:100F5000C401000830100008CC0000206406000026
:100F6000E00100080A0A4C6162203261202D2059FC
:100F7000757261204B696D2C204161726F6E204843
:100F8000616C6C696E670D0A0A00557365722063A7
:100F90006F6D6D616E64206572726F722873292E99
:100FA0000D0A0000000000000000000020252023A2
:100FB000802124A0202240234022235F5F5F242041
:100FC000FF00205F822520A00025228280000000F3
:100FD00048000020FFFFFFFF0000000000000000AD
:100FE0000000000000000000000000000100000000
:100FF00000000000000000000000000000000000F1
:101000005E000020FFFFFFFF000000000000000066
:1010100000000000000000000000000005000000CB
:1010200000000000000000000000000000000000C0
:040000050800018965
:00000001FF
