:020000040800F2
:10000000680600202902000865020008670200084F
:10001000690200086B0200086D0200080000000081
:100020000000000000000000000000006F02000857
:100030007102000800000000730200087502000849
:1000400077020008770200087702000877020008AC
:10005000770200087702000877020008770200089C
:10006000770200087702000877020008770200088C
:10007000770200087702000877020008770200087C
:10008000770200087702000877020008770200086C
:10009000770200087702000877020008770200085C
:1000A000770200087702000877020008770200084C
:1000B000770200087702000877020008770200083C
:1000C000770200087702000877020008770200082C
:1000D000770200087702000877020008770200081C
:1000E000770200087702000877020008770200080C
:1000F00077020008770200087702000877020008FC
:1001000077020008770200087702000877020008EB
:1001100077020008770200087702000877020008DB
:1001200077020008770200087702000877020008CB
:1001300077020008770200087702000877020008BB
:1001400077020008770200087702000877020008AB
:10015000770200087702000877020008770200089B
:10016000770200087702000877020008770200088B
:1001700077020008770200087702000800000000FC
:10018000770200087702000800F002F800F03CF85F
:100190000AA090E8000C82448344AAF10107DA45E2
:1001A00001D100F031F8AFF2090EBAE80F0013F0F8
:1001B000010F18BFFB1A43F001031847000E00009F
:1001C000200E0000103A24BF78C878C1FAD8520730
:1001D00024BF30C830C144BF04680C6070470000C1
:1001E0000023002400250026103A28BF78C1FBD840
:1001F000520728BF30C148BF0B6070471FB500F0E1
:10020000D7FE1FBD10B510BD00F059F81146FFF71D
:10021000F5FF00F02FFB00F077F803B4FFF7F2FFD3
:1002200003BC00F07BF8000016481749174B9942B1
:100230003CBF50F8042B41F8042BF8D314494FF07D
:1002400000028B4238BF43F8042BFAD3DFF8440096
:10025000016841F470010160BFF34F8FBFF36F8FEE
:100260000D480047FEE7FEE7FEE7FEE7FEE7FEE794
:10027000FEE7FEE7FEE7FEE708480949094A0A4BA0
:1002800070470000DC0F000800000020080000207C
:100290006806002088ED00E0890100086800002061
:1002A000680600206802002068020020704770473E
:1002B00070470000004870470800002070477546EE
:1002C000FFF7F8FFAE4605006946534620F00700E9
:1002D000854618B020B5FFF7CFFFBDE820404FF0AE
:1002E00000064FF000074FF000084FF0000B21F020
:1002F0000701AC46ACE8C009ACE8C009ACE8C009ED
:10030000ACE8C0098D46704710B50446AFF30080D5
:100310002046BDE81040FFF780BF000001491820CB
:10032000ABBEFEE7260002001248C06C40F012008F
:100330001049C8641048006820F440300E49086035
:100340000846006840F4803008600846806820F461
:10035000403088600846806840F440308860084635
:10036000406820F4802048600846C06820F440308F
:10037000C860704700100240001000485E490968DC
:1003800021F007015C4A11601146096841F0020141
:1003900011605A49096841F48071584A116000BFE0
:1003A0005649096801F480610029F9D010205349A9
:1003B000496821F0F851514A51601146496841EAB3
:1003C000006151601146096821F08071116000BF21
:1003D0004A49096801F00071B1F1007FF8D047493E
:1003E000C96821F00301454AD1601146C96841F04E
:1003F0000201D1601146C96821F4FE4141F4A051C7
:10040000D1601146C96821F0700141F01001D1603E
:100410001146C96821F0C061D1601146C96841F038
:100420008071D1601146096841F08071116000BF90
:100430003249096801F000710029F9D02F49896813
:1004400021F003012D4A91601146896841F00301B2
:10045000916000BF2949896801F00C010C29F9D18C
:100460002649896821F0F001244A91601146896883
:1004700021F4E06191601146896821F46051916036
:100480001146096821F08061116000BF1B490968AD
:1004900001F08061B1F1806FF8D01849096921F449
:1004A000FE41164A11611146096941F4C0511161BA
:1004B0001146096941F4003111611146096941F49D
:1004C000803111611146096841F08061116000BFFF
:1004D0000A49096801F080610029F9D0074988318B
:1004E000096821F44001054AC2F888101146096ED6
:1004F00041F40011116670470020024000100240D4
:100500001A48C06C40F008001849C86418480068D0
:1005100020F47050164908600846006840F42050E6
:10052000086013482030006840F0EE601049203128
:1005300008600F480830006840F470500C490831DA
:100540000860081D006820F47050091D0860084606
:10055000006840F4A05008600548001D006820F0C5
:1005600060000349091D0860704700000010024048
:10057000000C004800B50D48806D40F400300B4978
:1005800088650A488830006820F00C00C1F88800AF
:100590000846D0F8880040F00400C1F88800FFF752
:1005A000AFFF034800F006F800BD00000010024055
:1005B00000440040016821F001010160016821F060
:1005C00010210160016821F400410160416821F4BB
:1005D0004051416042F28D01C160016841F00C015F
:1005E00001601E4988421BD1016841F02001016071
:1005F000016821F040010160016821F010010160F3
:10060000016821F080010160016821F480710160BE
:10061000016821F040010160016821F001010160E1
:100620000F49884209D1016A41F0400101620D4938
:10063000096841F0C0010B4A1160016841F00101F5
:10064000016000BFC16901F400110029FAD000BFA8
:10065000C16901F480010029FAD07047004C0040C4
:1006600000440040083801400648006800F00100DE
:1006700030B104480068002002490860012070473A
:100680000020FCE7102C014030B500204FF09044D2
:10069000246904F00E020A4C246804F0CC01094CD1
:1006A000246904F40063541044EA232401F00C0587
:1006B00044EA850401F0C00544EA050030BD0000AD
:1006C00010040048001000480348406920F480707E
:1006D0000149486170470000001000480348406924
:1006E00040F48070014948617047000000100048E4
:1006F00010B53F2000F0ECF800200149086010BD63
:10070000000000203548806D40F0090033498865BD
:100710000846006E40F4006008664FF448704106D9
:1007200088624006406940F0010048614FF4FA6079
:10073000C8628006006A00200862084680690020BE
:1007400088610846806940F0680088610846006A50
:1007500040F0010008620846006800200860084672
:10076000006840F0800008604FF4FA501C490860AF
:100770001B481438006840F001001949143908601A
:10078000C8201749091D086015480838006800206E
:1007900013490839086012481038006800201049D1
:1007A000103908600E482838006800200C492839A4
:1007B00008600846006840F01000086008481438D7
:1007C000006840F001000649143908600807006815
:1007D00040F0010009070860704700000010024067
:1007E000282C01401C48C06C40F001001A49C86424
:1007F0000846C06C40F00200C8640846C06C40F077
:100800001000C8644FF090400068144908404FF051
:100810009041086008460068114908434FF0904134
:10082000086010480068104908400E4908600F48E9
:1008300000680F4908400D4908604FF09040006A79
:1008400020F00F004FF0904108620846006A60F007
:100850000E000862704700000010024000F0FFAB7D
:1008600002F3FFAB000400480F00FFAB001000488C
:10087000FFFF0FABFFF782FDFFF7B4FFFFF742FF6B
:10088000FFF778FEFFF750FDFFF732FF1EE04FF055
:100890009040006900F02000C0B1002415E001E0A4
:1008A00000F064F800F0A4F80028F9D1FFF7ECFE9E
:1008B00004463F2C01DBBC2C02DDFFF70FFF01E0FB
:1008C000FFF702FF204600F003F8E8E7DFE700004B
:1008D0002DE9F041044600253F2C00DA05E0BC2C50
:1008E00001DD7D2501E0A4F13F050C490968481BA5
:1008F000002801DB014600E041420E460748056042
:10090000284600F00DF80746384600F045F801206B
:100910000249486000F052F8BDE8F0810000002074
:1009200010B52DED068B0446204600F042F941EC4F
:100930001A0B9FED0A0B53EC102B00F051F941EC10
:10094000190B9FED080B53EC102B00F05BF841ECFA
:10095000180B00F0FFF8BDEC068B10BD7B14AE4702
:10096000E17AF43F000000000000444010B509485F
:100970004068002807DDFFF777FE20B10548406892
:10098000401E044948600348406808B900F026F852
:1009900010BD0000000000204FF08041496B002195
:1009A0004FF0804251631146496B01435163114638
:1009B000496941F001015161704700000648006833
:1009C00000200549086004481038006840F0010024
:1009D0000149103908607047102C01400348006835
:1009E0004FF6FE710840014908607047002C014035
:1009F0000348406808B9002070470120FCE7000068
:100A00000000002010B591EA030F48BF83F00043B7
:100A100000F1EC81841A71EB030C05D2121943EB3F
:100A20000C03001B61EB0C01DFF824E14FEA1154C9
:100A3000A4EB135C1EEA430F18BF9EEA445F73D019
:100A400023EA0E03DCF1200E21EA045143F4801363
:100A500032D322FA0CFE10EB0E0023FA0CFE41EB0F
:100A60000E01CCF1200E03FA0EFE10EB0E0051F138
:100A70000001B1F5801FCCF1200E32D201EB045100
:100A800012FA0EF2BDE8104058BF7047401C38BF44
:100A90005FEA420218BF7047002814BF20F001002F
:100AA00041F100014FEA410313F5001F38BF7047C1
:100AB000A1F1C04100F08CB9012A43EB0302ACF173
:100AC000200CDCF11F0E32BF4FF0000E23FA0CF3A6
:100AD00010EB030041EB0451B4EB115FD0D0A1EB5C
:100AE000045101F5801149085FEA300001EB04511F
:100AF0000ED350F1000038BF12FA0EFE08D1BDE847
:100B00001040C9E7401C38BF5FEA4202CAD1C3E7C0
:100B1000BDE810404FEA410313F5001F38BF70478E
:100B2000A1F1C04100F054B99EEA445F08D011EA37
:100B30005E0FBDE8104004BF01F000410020704787
:100B4000BDE8104070B500F0F5F800BF64FBBE3E94
:100B50000000E0FF4FEA41034FEA5353A3F58063DF
:100B6000D3F11E03C8BFD3F1210C0CDD4FF00042BE
:100B700042EAC12242EA505232FA03FC8CEAE17C9A
:100B8000ACEBE1707047102BC4BF0020704703F539
:100B9000787CBCF1FF3F04D06FF0004282EA210074
:100BA000704770B500F0C6F8499224800020704765
:100BB000F2E710F0004248BF4042B0FA80F310FA6A
:100BC00003F10AD0C3F11D0303F580634FEA4150DE
:100BD00002EB035202EBD12170474FF00000704747
:100BE000DFF848C170B51CEA111E1EBF1CEA1315C0
:100BF0009EEA0C0F95EA0C0F00F06F8081EA030467
:100C000023EA4C134EEAD47E21EA4C1141F48011C0
:100C100043F48013AE44A1FB024CA0FB0365AEF18C
:100C20007F7E361955EB0C05A1FB034C4CF10003FC
:100C3000A0FB021C16EB0C06654153F100030942B0
:100C400018BF46F0010613F4007F0BD14FEA0331C1
:100C50004FEA0530340341EA155140EA16506FF06F
:100C600003020AE04FEAC3214FEAC520F40241EA39
:100C7000555140EA56506FF0020202EB2E4201EB52
:100C8000025585EACE710AD05FEA440C18BF24F001
:100C9000004450F1000041F1000120EAD47040F21C
:100CA000FE7C624500D270BDA84214BF4FF0804464
:100CB0004FF04044002E08BF0024BEF1806FA8BF53
:100CC000A1F1C041BDE8704080F282804FF0000089
:100CD00001F1C04101F0004170479EEA0C0F0CEA9F
:100CE000131518BF95EA0C0F06D04FF0000081EAEB
:100CF000030E0EF0004170BD00F01CF88900013EAB
:100D000000F007B800F009B84FEA430C5FEA5C5CFA
:100D100008D081EA030100F05BB84FEA410C5FEABA
:100D20005C5CF6D14FF00000014970470000FF07FE
:100D30000000F87F0EF1020E2EF0030E5EF8046B39
:100D4000364205D4012A43EB030515F5001F12D8DE
:100D5000012841EB010C1CF5001F0CD80ED14FEA05
:100D6000D17C15F5001F0CEB4C0C0CF1020C08BFEC
:100D70004CEBD37C04E04FF0080C01E04FEAD37C4D
:100D80000CEB4C0526FA05F606F00706B6F1040C46
:100D900006D20EEB860CBDE870404CF0010C6047AB
:100DA000DFE80CF0090B02024FF000414FF00000A9
:100DB000A1F5002170BD19461046012851EB010430
:100DC00018BFD4F5001484BF002001F0004170BDAD
:100DD0000808A0F500114FEA3101704710B591EAFB
:100DE000030F48BF83F000433FF514AE841A71EB44
:100DF000030C07D212198CF0004C43EB0C03001BC0
:100E000061EB0C01DFF8A4E14FEA1154A4EB135C91
:100E10001EEA430F18BF9EEA445F00F0B08023EA49
:100E20006E03524221EA0451C3EB6E0338BF5B1ECE
:100E3000DCF1200E25D322FA0CFE10EB0E0043FA53
:100E40000CFE41EB0E01CCF1200E03FA0EFE10EB6E
:100E50000E0051F10001CCF1200E29D412FA0EF24D
:100E600001EB0451BDE8104058BF7047401C1CBF47
:100E7000B2F1004F704700280CBF491C20F0010060
:100E8000704712EB020E43EB030218BF4FF0010E46
:100E90004EEA4202ACF1200CDCF11E0E54D943FAAA
:100EA0000CFE10EB0E0051F1FF31CCF11E0ED5D52A
:100EB0000EF1010E12FA0EFE404141EB010101EB71
:100EC000445C5FEA5C5C10D910EBDE7001EB04510E
:100ED00038BFBEF1004FBDE8104018BF7047002872
:100EE0000CBF491C20F00100704730D24FEAD42CCF
:100EF00011F5001124F400641BD0B1FA81F20B3A11
:100F0000A41AA41ED2F12003914030FA03F319432E
:100F1000904001EBCC71002C01EB0451BDE8104076
:100F2000A8BF704701F1C0414FF0000001F000413F
:100F30007047B0FA80F310FA03F100D110BDE41A43
:100F4000173C4805C90AE4E701EB045110BD4910FC
:100F500001EB0451BDE810404FEA300002E04FF0D1
:100F6000000170474A0008BF0042F8D0B2F5001FE8
:100F700028BF704701F000414FF0000070479EEA23
:100F8000445F07D011EA5E0FBDE8104004BF0021A6
:100F900000207047BDE8104070B5FFF7CBFE00BFE2
:100FA00040DFF63E83F00041104670470000E0FF4E
:100FB0004FF04070E1EE100A70470000DC0F0008AF
:100FC0000000002008000000C4010008E40F000831
:100FD0000800002060060000E0010008000000009A
:040FE000000000000D
:040000050800018965
:00000001FF
