:020000040800F2
:10000000680600202902000865020008670200084F
:10001000690200086B0200086D0200080000000081
:100020000000000000000000000000006F02000857
:100030007102000800000000730200087502000849
:1000400077020008770200087702000877020008AC
:10005000770200087702000877020008770200089C
:10006000770200087702000877020008770200088C
:10007000770200087702000877020008770200087C
:10008000770200087702000877020008770200086C
:10009000770200087702000877020008770200085C
:1000A000770200087702000877020008770200084C
:1000B000770200087702000877020008770200083C
:1000C000770200087702000877020008770200082C
:1000D000770200087702000877020008770200081C
:1000E000770200087702000877020008770200080C
:1000F00077020008770200087702000877020008FC
:1001000077020008770200087702000877020008EB
:1001100077020008770200087702000877020008DB
:1001200077020008770200087702000877020008CB
:1001300077020008770200087702000877020008BB
:1001400077020008770200087702000877020008AB
:10015000770200087702000877020008770200089B
:10016000770200087702000877020008770200088B
:1001700077020008770200087702000800000000FC
:10018000770200087702000800F002F800F03CF85F
:100190000AA090E8000C82448344AAF10107DA45E2
:1001A00001D100F031F8AFF2090EBAE80F0013F0F8
:1001B000010F18BFFB1A43F0010318474405000064
:1001C00064050000103A24BF78C878C1FAD85207F5
:1001D00024BF30C830C144BF04680C6070470000C1
:1001E0000023002400250026103A28BF78C1FBD840
:1001F000520728BF30C148BF0B6070471FB500F0E1
:100200007AFA1FBD10B510BD00F053F81146FFF784
:10021000F5FF00F001FA00F071F803B4FFF7F2FF08
:1002200003BC00F079F8000016481749174B9942B3
:100230003CBF50F8042B41F8042BF8D314494FF07D
:1002400000028B4238BF43F8042BFAD3DFF8440096
:10025000016841F470010160BFF34F8FBFF36F8FEE
:100260000D480047FEE7FEE7FEE7FEE7FEE7FEE794
:10027000FEE7FEE7FEE7FEE708480949094A0A4BA0
:100280007047000020070008000000200800002040
:100290006806002088ED00E0890100086800002061
:1002A000680600206802002068020020704770473E
:1002B0007047754600F02CF8AE4605006946534677
:1002C00020F00700854618B020B5FFF7D5FFBDE840
:1002D00020404FF000064FF000074FF000084FF0AD
:1002E000000B21F00701AC46ACE8C009ACE8C0093E
:1002F000ACE8C009ACE8C0098D46704710B50446AB
:10030000AFF300802046BDE81040FFF786BF000035
:10031000004870470800002001491820ABBEFEE7E6
:1003200026000200704700005E49096821F00701BD
:100330005C4A11601146096841F0020111605A4996
:10034000096841F48071584A116000BF5649096834
:1003500001F480610029F9D010205349496821F047
:10036000F851514A51601146496841EA00615160B3
:100370001146096821F08071116000BF4A4909687F
:1003800001F00071B1F1007FF8D04749C96821F050
:100390000301454AD1601146C96841F00201D160AC
:1003A0001146C96821F4FE4141F4A051D1601146C3
:1003B000C96821F0700141F01001D1601146C9688F
:1003C00021F0C061D1601146C96841F08071D160EF
:1003D0001146096841F08071116000BF3249096817
:1003E00001F000710029F9D02F49896821F003013B
:1003F0002D4A91601146896841F00301916000BF68
:100400002949896801F00C010C29F9D1264989682C
:1004100021F0F001244A91601146896821F4E061DD
:1004200091601146896821F4605191601146096814
:1004300021F08061116000BF1B49096801F08061F3
:10044000B1F1806FF8D01849096921F4FE41164ACC
:1004500011611146096941F4C051116111460969E0
:1004600041F4003111611146096941F48031116193
:100470001146096841F08061116000BF0A490968AE
:1004800001F080610029F9D007498831096821F419
:100490004001054AC2F888101146096E41F4001166
:1004A00011667047002002400010024006480068B4
:1004B00000F0010030B104480068002002490860E3
:1004C000012070470020FCE7102C014010B50446C5
:1004D00004480460002003490968086000F0B2F88D
:1004E00010BD0000000000203648806D40F009007B
:1004F000344988650846006E40F4006008664FF491
:100500004870410688624006406940F00100486139
:100510004FF4FA60C8628006006A0020086208464C
:100520008069002088610846806946F668010843B2
:10053000C90688610846006A40F011000862084652
:100540000068002008600846006840F080000860ED
:100550004FF4FA501C4908601B481438006840F0FA
:1005600001001949143908604FF47A701649091DC1
:1005700008601548083800680020134908390860E9
:1005800011481038006800200F49103908600E48E3
:100590002838006800200C4928390860084600689F
:1005A00040F01000086008481438006840F001006E
:1005B0000549143908600807006840F00100090780
:1005C0000860704700100240282C01401048C06CA1
:1005D00040F001000E49C8644FF0904000680D499A
:1005E00008404FF0904108600846006809490A3108
:1005F00008434FF0904108600846006A20F00F0061
:1006000008620846006A60F0EE0008627047000069
:1006100000100240F0FFFFABFFF786FEFFF7D6FFAA
:10062000FFF762FF2046FFF751FF09E02068A8426C
:1006300003D0284600F006F801E000F03BF800BFC8
:10064000F4E7000070B504460C4909680968081B06
:10065000002801DB014600E041424D0007480068E8
:10066000046006490968086800F00AF80646304642
:1006700000F030F80148456070BD00000000002027
:10068000014609B932207047012901D15020FAE70B
:10069000022901D16E20F6E7032901D18C20F2E76F
:1006A000042901D1AA20EEE7052901D1C820EAE7F3
:1006B0003220E8E710B506484068002807DDFFF75C
:1006C000F5FE20B102484068401E0149486010BD57
:1006D000000000204FF08041496B00214FF0804224
:1006E00051631146496B014351631146496941F019
:1006F0000101516170474FF04070E1EE100A704700
:10070000200700080000002008000000C4010008C5
:10071000280700080800002060060000E00100082B
:080720000000000000000000D1
:040000050800018965
:00000001FF
