:020000040800F2
:1000000068070020310200086D0200086F02000836
:100010007102000873020008750200080000000069
:10002000000000000000000000000000770200084F
:1000300079020008000000007B0200087D02000831
:100040007F0200087F0200087F0200087F0200088C
:100050007F0200087F0200087F0200087F0200087C
:100060007F0200087F0200087F0200087F0200086C
:100070007F0200087F0200087F0200087F0200085C
:100080007F0200087F0200087F0200087F0200084C
:100090007F0200087F0200087F0200087F0200083C
:1000A0007F0200087F0200087F0200087F0200082C
:1000B0007F0200087F0200087F0200087F0200081C
:1000C0007F0200087F0200087F0200087F0200080C
:1000D0007F0200087F0200087F0200087F020008FC
:1000E0007F0200087F0200087F0200087F020008EC
:1000F0007F0200087F0200087F0200087F020008DC
:100100007F0200087F0200087F0200087F020008CB
:100110007F0200087F0200087F0200087F020008BB
:100120007F0200087F0200087F0200087F020008AB
:100130007F0200087F0200087F0200087F0200089B
:100140007F0200087F0200087F0200087F0200088B
:100150007F0200087F0200087F0200087F0200087B
:100160007F0200087F0200087F0200087F0200086B
:100170007F0200087F0200087F02000800000000E4
:100180007F0200087F02000800F002F800F041F84A
:100190000AA090E8000C82448344AAF10107DA45E2
:1001A00001D100F036F8AFF2090EBAE80F0013F0F3
:1001B000010F18BFFB1A43F001031847AC0A0000F7
:1001C000CC0A0000103A24BF78C878C1FAD8520788
:1001D00024BF30C830C144BF04680C6070470000C1
:1001E0000023002400250026103A28BF78C1FBD840
:1001F000520728BF30C148BF0B607047642900F028
:10020000A380002070471FB500F029FD1FBD10B569
:1002100010BD00F0A0F91146FFF7F5FF00F01CFC3F
:1002200000F0BEF903B4FFF7F2FF03BC00F0C6F91B
:1002300016481749174B99423CBF50F8042B41F818
:10024000042BF8D314494FF000028B4238BF43F817
:10025000042BFAD3DFF84400016841F47001016017
:10026000BFF34F8FBFF36F8F0D480047FEE7FEE7E8
:10027000FEE7FEE7FEE7FEE7FEE7FEE7FEE7FEE756
:1002800008480949094A0A4B70470000880C0008D1
:1002900000000020080100206807002088ED00E031
:1002A0008901000868010020680700206803002019
:1002B000680300200FB41CB5084B06AA7B446946AE
:1002C0000090059800F02FF904460020694600F0E0
:1002D0003DF920461CBC5DF814FB00008D020000B7
:1002E0002DE9F0410E460446002020622046E168D8
:1002F000884730B3252805D0D4E901219047206AEA
:10030000401CF2E7E168204600278847050018D026
:10031000A5F14100192802D820354FF40067324674
:10032000294620462760FFF769FF40B1012804D025
:10033000F61D26F007060836D8E7361DD6E728460C
:10034000DAE7206ABDE8F0812DE9F0410646002495
:1003500010687529314616A510D0AFF3008000282B
:1003600002DA404213A507E031688A0701D512A5D9
:1003700002E0490704D511A5012401E0AFF3008094
:1003800000210A2206F1240709E0B0FBF2FCB0FBD1
:10039000F2F302FB1C00303078541846491C002848
:1003A000F3D123462A463046BDE8F04100F05CB860
:1003B000000000002D0000002B00000020000000C5
:1003C00010B5431C02E010F8011B71B18107FAD18E
:1003D0004FF0013202C88C1A8C4314EAC211F9D0D2
:1003E000C01A0A0603D0C01E10BDC01A10BD0A04F0
:1003F00001D0801E10BD0902FCD0401E10BD10B5FA
:10040000203AC0F00B80B1E81850203AA0E818500C
:10041000B1E81850A0E81850BFF4F5AF5FEA027CCD
:1004200024BFB1E81850A0E8185044BF18C918C03C
:10043000BDE810405FEA827C24BF51F8043B40F8DD
:10044000043B08BF7047D20728BF31F8023B48BFC2
:1004500011F8012B28BF20F8023B48BF00F8012B00
:1004600070477047704770472DE9F0470D46994631
:100470009246044600F124080168880604D5E06924
:1004800021F01001216000E00120A84201DD471B9E
:1004900000E00027A1697A1902EB0900081AA0619F
:1004A0002078C00602D42046AFF30080002608E082
:1004B000D4E901211AF806009047206A401C761CF6
:1004C00020624E45F4DB2078C0060AD52046AFF303
:1004D000008006E0D4E9012130209047206A401CCA
:1004E0002062381EA7F10107F4DC07E0D4E90121FE
:1004F00018F805009047206A401C2062281EA5F1CC
:100500000105F3DC2046AFF300802078000602D519
:100510000220BDE8F0870120FBE7000001694A1CCA
:1005200002610878704700B58FB0CDE90131002134
:10053000059105497944CDE9031011466846FFF756
:10054000CFFE0FB000BD0000E5FFFFFF0A6802F814
:10055000010B0A607047754600F02CF8AE460500A6
:100560006946534620F00700854618B020B5FFF7CE
:1005700087FEBDE820404FF000064FF000074FF027
:1005800000084FF0000B21F00701AC46ACE8C009B1
:10059000ACE8C009ACE8C009ACE8C0098D467047BA
:1005A00010B50446AFF300802046BDE81040FFF7C9
:1005B00039BE00000048704708010020014918209A
:1005C000ABBEFEE726000200704700005E490968E6
:1005D00021F007015C4A11601146096841F00201EF
:1005E00011605A49096841F48071584A116000BF8E
:1005F0005649096801F480610029F9D01020534957
:10060000496821F0F851514A51601146496841EA60
:10061000006151601146096821F08071116000BFCE
:100620004A49096801F00071B1F1007FF8D04749EB
:10063000C96821F00301454AD1601146C96841F0FB
:100640000201D1601146C96821F4FE4141F4A05174
:10065000D1601146C96821F0700141F01001D160EC
:100660001146C96821F0C061D1601146C96841F0E6
:100670008071D1601146096841F08071116000BF3E
:100680003249096801F000710029F9D02F498968C1
:1006900021F003012D4A91601146896841F0030160
:1006A000916000BF2949896801F00C010C29F9D13A
:1006B0002649896821F0F001244A91601146896831
:1006C00021F4E06191601146896821F460519160E4
:1006D0001146096821F08061116000BF1B4909685B
:1006E00001F08061B1F1806FF8D01849096921F4F7
:1006F000FE41164A11611146096941F4C051116168
:100700001146096941F4003111611146096941F44A
:10071000803111611146096841F08061116000BFAC
:100720000A49096801F080610029F9D00749883138
:10073000096821F44001054AC2F888101146096E83
:1007400041F4001111667047002002400010024081
:100750001A48C06C40F008001849C864184800687E
:1007600020F47050164908600846006840F4205094
:10077000086013482030006840F0EE6010492031D6
:1007800008600F480830006840F470500C49083188
:100790000860081D006820F47050091D08600846B4
:1007A000006840F4A05008600548001D006820F073
:1007B00060000349091D08607047000000100240F6
:1007C000000C004800B50D48806D40F400300B4926
:1007D00088650A488830006820F00C00C1F888005D
:1007E0000846D0F8880040F00400C1F88800FFF700
:1007F000AFFF034800F010F800BD000000100240F9
:1008000000440040642242430723B2FBF3F100BFDF
:100810004A1E111EFCD17047016821F001010160E0
:10082000016821F010210160016821F4004101609C
:10083000416821F44051416042F28D01C16001687C
:1008400041F00C0101601E4988421BD1016841F052
:1008500020010160016821F040010160016821F080
:1008600010010160016821F080010160016821F43C
:1008700080710160016821F040010160016821F090
:10088000010101600F49884209D1016A41F040012C
:1008900001620D49096841F0C0010B4A116001680D
:1008A00041F00101016000BFC16901F4001100299C
:1008B000FAD000BFC16901F480010029FAD0704765
:1008C000004C00400044004008380140014600BF91
:1008D000C86900F020000028FAD0888CC0B27047A8
:1008E000F0B504460E46174600250CE000BFE0694F
:1008F00000F080000028FAD0705D20854FF49670DB
:10090000FFF780FF6D1CBD42F0D300BFE06900F02F
:1009100040000028FAD0E06920F04000E061F0BD1E
:1009200070B504464E25204600F04EF9054617E006
:1009300000F0E0F80446322C03DB42F2DE60844231
:100940000ADD0A48FFF73CFD0646324607490848DB
:10095000FFF7C6FF4E2503E0204600F035F90546B7
:100960006E2DE5D0E4D0002070BD00008D00002089
:100970000044004010B5024600232648806D40F038
:100980000100244CA0650020A404A0622046C1629E
:10099000806940F00100A0612046006A40F001003B
:1009A0002062204600680020206020460068104336
:1009B00020602046406940F00100606120460068E8
:1009C00040F00100206020E04FF08040006960B1FD
:1009D00000BF4FF08040436B00684FF6F07420403A
:1009E0004FF080442060184610BD4FF080400069F1
:1009F00058B100BF4FF0804000684FF6F0742040BF
:100A00004FF0804420601846EEE7002BDCD0002039
:100A1000EAE70000001002400E48C06C40F0010000
:100A20000C49C8644FF09040006820F003004FF07C
:100A3000904108600846006840F0020008600846DF
:100A4000006A20F00F0008620846006A60F00E009D
:100A50000862704700100240FFF7B8FDFFF7B2FED2
:100A6000FFF7DAFF1E48FFF7ABFC044622461C499D
:100A70001C48FFF735FF00F04FF81B49086019E0EC
:100A800000F056F81949087008460078592803D034
:100A900008460078792804D100F03EF81249086031
:100AA00008E0124800784E2803D0104800786E28DD
:100AB00000D103E00C4800680028E1D000BF0DE041
:100AC0000B480068FFF72CFF0949086008460068DA
:100AD00000F0C4F80648006800F03CF8F0E70000B9
:100AE0000900002000440040000000200800002011
:100AF0000400002010B50648FFF762FC04462246B9
:100B000003490448FFF7ECFE0248FFF7DFFE10BD83
:100B1000B70000200044004010B500240349012024
:100B2000FFF728FF0446204610BD000000127A009F
:100B300010B50648FFF744FC044622460349044822
:100B4000FFF7CEFE0248FFF7C1FE10BD2E000020C9
:100B50000044004030B58BB005462C220DA16846FC
:100B6000FFF74DFC6846FFF72BFC0446224669461A
:100B70001348FFF7B5FE1348FFF722FC0446224650
:100B800010490F48FFF7ACFE0D48FFF79FFE0BB072
:100B900030BD0000486973746F6772616D207265C3
:100BA00073756C74732066726F6D206C696D6974F7
:100BB00073202825642C2564293A0D0A00000000C2
:100BC00000440040D900002070B588B004460025DC
:100BD000224610A16846FFF76DFB05460DEB0500A8
:100BE00004F1640213A1FFF765FB05442A46694638
:100BF0001848FFF775FE1848FFF7E2FB0646324635
:100C000015491448FFF76CFE1248FFF75FFE08B065
:100C100070BD00000A4C6F776572206C696D697455
:100C20003A202564206D6963726F7365636F6E741B
:100C3000730D0A005570706572206C696D69743AA5
:100C4000202564206D6963726F7365636F6E6473D2
:100C50000D0A0000004400406600002070474FF07D
:100C60004070E1EE100A7047880C00080000002078
:100C700008010000C4010008900D000808010020D0
:100C800060060000E001000800000000B60300005C
:100C9000000A0A4C61622031202D205975726120B2
:100CA0004B696D2C204161726F6E2048616C6C69DC
:100CB0006E670D0A0A00504F5354206661696C2E0E
:100CC00020576F756C6420796F75206C696B652097
:100CD000746F2072657472793F202859203D207905
:100CE00065732C204E203D206E6F290D0A00416354
:100CF0006365707420746865206C696D6974733FF6
:100D0000202859203D207965732C204E203D206EEF
:100D10006F290D0A004C6F776572206C696D6974DC
:100D2000206D75737420626520696E2072616E6734
:100D300065202835302C39393530292E0D0A004EE2
:100D40006577206C6F776572206C696D69742028F7
:100D50006D6963726F7365636F6E6473293A0D0A10
:100D600000526572756E20776974682073616D65D5
:100D7000206C696D6974733F202859203D20796586
:100D8000732C204E203D206E6F290D0A00000000BC
:040000050800018965
:00000001FF
