:020000040800F2
:100000000009002045020008810200088302000860
:10001000850200088702000889020008000000002D
:100020000000000000000000000000008B0200083B
:100030008D020008000000008F02000891020008F5
:10004000930200089302000893020008930200083C
:10005000930200089302000893020008930200082C
:10006000930200089302000893020008930200081C
:10007000930200089302000893020008930200080C
:1000800093020008930200089302000893020008FC
:1000900093020008930200089302000893020008EC
:1000A00093020008930200089302000893020008DC
:1000B00093020008930200089302000893020008CC
:1000C00093020008930200089302000893020008BC
:1000D00093020008930200089302000893020008AC
:1000E000930200089302000893020008930200089C
:1000F000930200089302000893020008930200088C
:10010000930200089302000893020008930200087B
:10011000930200089302000893020008930200086B
:10012000930200089302000893020008930200085B
:10013000930200089302000893020008930200084B
:10014000930200089302000893020008930200083B
:10015000930200089302000893020008930200082B
:10016000930200089302000893020008930200081B
:1001700093020008930200089302000800000000A8
:10018000930200089302000800F002F800F04AF819
:100190000AA090E8000C82448344AAF10107DA45E2
:1001A00001D100F03FF8AFF2090EBAE80F0013F0EA
:1001B000010F18BFFB1A43F001031847800D000020
:1001C000A00D0000103A24BF78C878C1FAD85207B1
:1001D00024BF30C830C144BF04680C6070470000C1
:1001E0000023002400250026103A28BF78C1FBD840
:1001F000520728BF30C148BF0B607047642900F028
:10020000AD80002070471FB500F092FE00F04AFA62
:1002100004000020002100F075FE401C60601FBD3E
:1002200010B510BD00F018FA1146FFF7ECFF00F012
:10023000C9FC00F049FA03B4FFF7F2FF03BC00F079
:100240008DFA000016481749174B99423CBF50F8E9
:10025000042B41F8042BF8D314494FF000028B42D1
:1002600038BF43F8042BFAD3DFF84400016841F4A7
:1002700070010160BFF34F8FBFF36F8F0D480047D0
:10028000FEE7FEE7FEE7FEE7FEE7FEE7FEE7FEE746
:10029000FEE7FEE708480949094A0A4B7047000093
:1002A0006C10000800000020100100200009002050
:1002B00088ED00E08901000800030020000900200B
:1002C00000050020000500200FB41CB5084B06AA4D
:1002D0007B4469460090059800F00FF90446002021
:1002E000694600F01DF920461CBC5DF814FB0000B7
:1002F0004D0200002DE9F0410E4604460020206228
:100300002046E168884730B3252805D0D4E901218B
:100310009047206A401CF2E7E168204600278847A2
:10032000050018D0A5F14100192802D820354FF456
:1003300000673246294620462760FFF75FFF40B13D
:10034000012804D0F61D26F007060836D8E7361D2A
:10035000D6E72846DAE7206ABDE8F0812DE9F041CA
:100360000646002410687529314616A510D0AFF353
:100370000080002802DA404213A507E031688A07AE
:1003800001D512A502E0490704D511A5012401E019
:10039000AFF3008000210A2206F1240709E0B0FB38
:1003A000F2FCB0FBF2F302FB1C003030785418462C
:1003B000491C0028F3D123462A463046BDE8F041C7
:1003C00000F03CB8000000002D0000002B000000F1
:1003D0002000000070B5064600F02CF804680546C1
:1003E00030460A22002100F0A0F82C6070BD10B544
:1003F000431C02E010F8011B71B18107FAD14FF0E4
:10040000013202C88C1A8C4314EAC211F9D0C01A06
:100410000A0603D0C01E10BDC01A10BD0A0401D0C8
:10042000801E10BD0902FCD0401E10BD70477047F1
:100430007047000000487047A00200202DE9F047F7
:100440000D4699469246044600F124080168880644
:1004500004D5E06921F01001216000E00120A842EC
:1004600001DD471B00E00027A1697A1902EB0900B2
:10047000081AA0612078C00602D42046AFF300809D
:10048000002608E0D4E901211AF806009047206A06
:10049000401C761C20624E45F4DB2078C0060AD54D
:1004A0002046AFF3008006E0D4E9012130209047D8
:1004B000206A401C2062381EA7F10107F4DC07E027
:1004C000D4E9012118F805009047206A401C2062F9
:1004D000281EA5F10105F3DC2046AFF3008020784B
:1004E000000602D50220BDE8F0870120FBE70000EE
:1004F00001694A1C02610878704700B58FB0CDE9E8
:1005000001310021059105497944CDE903101146D7
:100510006846FFF7EFFE0FB000BD0000E5FFFFFFEC
:100520000A6802F8010B0A6070472DE9F04791460E
:100530000F4680460446002614F8015B2DB100F0FA
:1005400031F80068405DC007F6D12B2D02D02D2D6B
:1005500018D0641E4A463946204600F02BF827B1D1
:100560003968A14201D1C7F800804FF0020471053B
:100570000BD54042002803DDFFF75CFF0460A007B5
:10058000BDE8F08746F48066E4E70028F8DAFFF774
:1005900051FF04606FF00040F2E700000048704730
:1005A000A002002010B500F07DF8001D10BD00BFB6
:1005B000550900002DE9F05F824615468B4600275D
:1005C0000AF10104B9460078302801D09DB113E04A
:1005D00014F8010B0127782803D0582801D045B121
:1005E0000AE00DB1102D07D1002714F8010B1025DA
:1005F00002E0082500E00A250026B0460EE005FBD3
:10060000080005FB06F101271FFA80F801EB1046F0
:10061000B6F5803F00D3B94614F8010B294600F027
:1006200045F80028EBDABBF1000F05D00FB1641ECE
:1006300000E05446CBF80040B9F1000F06D0FFF7B8
:10064000F9FE02210160C81E00F003B848EA064026
:10065000FAE730BCBDE8C09F7546FFF79FFFAE4686
:1006600005006946534620F00700854618B020B5BE
:10067000FFF710FEBDE820404FF000064FF00007E6
:100680004FF000084FF0000B21F00701AC46ACE83A
:10069000C009ACE8C009ACE8C009ACE8C0098D46A7
:1006A0007047000000487047C00200203A2800D27E
:1006B000303820F02002412A01D3A2F137008842CD
:1006C00001D34FF0FF30704710B50446AFF3008000
:1006D0002046BDE81040FFF7AEBD00004FF0013CE2
:1006E00050F8042B51F8043B9A4221D1A2EB0C03A1
:1006F000934313EACC1317D150F8042B51F8043B61
:100700009A4215D1A2EB0C03934313EACC130BD1FD
:1007100050F8042B51F8043B9A4209D1A2EB0C0388
:10072000934313EACC13DBD04FF00000704700BFB7
:10073000D01A01BAB1FA81F101F0180122FA01F0E0
:10074000CB40C1F12001DBB2C0B2C01A2CFA01F3D8
:10075000D11A914311EAC311E6D17047014918201B
:10076000ABBEFEE726000200704700005E49096844
:1007700021F007015C4A11601146096841F002014D
:1007800011605A49096841F48071584A116000BFEC
:100790005649096801F480610029F9D010205349B5
:1007A000496821F0F851514A51601146496841EABF
:1007B000006151601146096821F08071116000BF2D
:1007C0004A49096801F00071B1F1007FF8D047494A
:1007D000C96821F00301454AD1601146C96841F05A
:1007E0000201D1601146C96821F4FE4141F4A051D3
:1007F000D1601146C96821F0700141F01001D1604B
:100800001146C96821F0C061D1601146C96841F044
:100810008071D1601146096841F08071116000BF9C
:100820003249096801F000710029F9D02F4989681F
:1008300021F003012D4A91601146896841F00301BE
:10084000916000BF2949896801F00C010C29F9D198
:100850002649896821F0F001244A9160114689688F
:1008600021F4E06191601146896821F46051916042
:100870001146096821F08061116000BF1B490968B9
:1008800001F08061B1F1806FF8D01849096921F455
:10089000FE41164A11611146096941F4C0511161C6
:1008A0001146096941F4003111611146096941F4A9
:1008B000803111611146096841F08061116000BF0B
:1008C0000A49096801F080610029F9D00749883197
:1008D000096821F44001054AC2F888101146096EE2
:1008E00041F40011116670470020024000100240E0
:1008F0001A48C06C40F008001849C86418480068DD
:1009000020F47050164908600846006840F42050F2
:10091000086013482030006840F0EE601049203134
:1009200008600F480830006840F470500C490831E6
:100930000860081D006820F47050091D0860084612
:10094000006840F4A05008600548001D006820F0D1
:1009500060000349091D0860704700000010024054
:10096000000C004800B50D48806D40F400300B4984
:1009700088650A488830006820F00C00C1F88800BB
:100980000846D0F8880040F00400C1F88800FFF75E
:10099000AFFF034800F010F800BD00000010024057
:1009A00000440040642242430723B2FBF3F100BF3E
:1009B0004A1E111EFCD17047016821F0010101603F
:1009C000016821F010210160016821F400410160FB
:1009D000416821F44051416042F28D01C1600168DB
:1009E00041F00C0101601E4988421BD1016841F0B1
:1009F00020010160016821F040010160016821F0DF
:100A000010010160016821F080010160016821F49A
:100A100080710160016821F040010160016821F0EE
:100A2000010101600F49884209D1016A41F040018A
:100A300001620D49096841F0C0010B4A116001686B
:100A400041F00101016000BFC16901F400110029FA
:100A5000FAD000BFC16901F480010029FAD07047C3
:100A6000004C00400044004008380140014600BFEF
:100A7000C86900F020000028FAD0888CC0B2704706
:100A8000F0B504460E46174600250CE000BFE069AD
:100A900000F080000028FAD0705D20854FF4967039
:100AA000FFF780FF6D1CBD42F0D300BFE06900F08E
:100AB00040000028FAD0E06920F04000E061F0BD7D
:100AC0002DE9F04104462646204600F07DF9054612
:100AD000344616E000F0D0F80446322C03DB42F234
:100AE000DE60844209DD0A48FFF781FC07463A468A
:100AF00007490848FFF7C4FF03E0204600F064F907
:100B000005464E2DE6D06E2DE4D02046BDE8F0819E
:100B10008D0000200044004010B5184B9B6D43F041
:100B20000103164CA3650023A404A36223465B695A
:100B300043F0010363612346D9621B6A00232362E9
:100B400023469B690023A36123469B6943F001036D
:100B5000A36123461B6A43F00103236223461B68FB
:100B60000023236023461B6803432360002200E028
:100B7000521C034B9A42FBDB10BD000000100240E8
:100B800000093D000E48C06C40F001000C49C864EB
:100B90004FF09040006820F003004FF09041086053
:100BA0000846006840F0020008600846006A20F02D
:100BB0000F0008620846006A60F00E000862704785
:100BC00000100240FFF7D2FDFFF7CCFEFFF7DAFF7F
:100BD0002348FFF70CFC0446224621492148FFF731
:100BE0004FFF00F089F82049086019E000F092F802
:100BF0001E49087008460078592803D00846007836
:100C0000792804D100F078F81749086008E01748FF
:100C100000784E2803D0154800786E2800D103E0F4
:100C2000114800680028E1D000BF18E0002004E06F
:100C300000210F4A42F82010401C6528F8DB0D48BF
:100C40000068FFF73DFF0B49086009490948006843
:100C500000F0FEF806490748006800F06DF8E5E787
:100C6000090000200044004000000020080000208F
:100C70001001002004000020FEB51CA000680090B8
:100C800000241B48FFF7B3FB0646324618491948B3
:100C9000FFF7F6FE1748FFF7E9FE054615E001A845
:100CA0000555002101AA601C115401A90819FFF77C
:100CB0009EFB064601A8011932460E48FFF7E0FEEA
:100CC0000C48FFF7D3FE0546641C0D2D01D0042C03
:100CD000E5DB6846FFF78BFB06463246694605486A
:100CE000FFF7CEFE01A8FFF775FBFEBD200D0A0041
:100CF000B70000200044004010B5002404499020B3
:100D0000FFF70AFF00F0C2F80446204610BD0000BD
:100D100000127A0010B50648FFF769FB0446224628
:100D200003490448FFF7ACFE0248FFF79FFE10BDE1
:100D30002E000020004400402DE9F04190B005460F
:100D40000E4605F164032A4611A108A8FFF7BCFA74
:100D500007463A4608A91948FFF792FE002411E019
:100D600056F8240068B156F82430621914A1684678
:100D7000FFF7AAFA8046424669461048FFF780FE10
:100D800000BF641C662CEBDB10B0BDE8F0810000F6
:100D9000486973746F6772616D20726573756C74E6
:100DA000732066726F6D206C696D697473202825DD
:100DB000642C2564293A0D0A00000000004400401C
:100DC00025640925640D0A0070B588B004462246E2
:100DD00011A16846FFF778FA05462A466946144885
:100DE000FFF74EFE04F1640212A16846FFF76CFAA9
:100DF00005462A4669460E48FFF742FE1348FFF7AC
:100E0000F6FA0646324611490948FFF739FE084806
:100E1000FFF72CFE08B070BD0A4C6F776572206C2E
:100E2000696D69743A2025642075730D0A0000000D
:100E3000004400405570706572206C696D69743AA9
:100E40002025642075730D0A000000006600002054
:100E50002DE9F04105460C4600260B498020FFF79E
:100E60005BFE00270BE000F011F8502190FBF1F041
:100E7000461B54F82600401C44F826007F1CB7F59A
:100E80007A7FF0DDBDE8F081A0440C0000214FF036
:100E90008040406940F001004FF0804250611046B0
:100EA0000069002010611046006840F001001060E9
:100EB00023E04FF08040006900F0020060B14FF085
:100EC000804000684FF6FE7210404FF08042106084
:100ED0001046416B084670474FF08040006900F0B3
:100EE000010050B14FF0804000684FF6FE72104094
:100EF0004FF0804210600846EDE70029D9D000206D
:100F0000E9E7000010B500290AD00878002807D0CA
:100F100005487844FFF7E2FB002801D0002010BD0F
:100F20000248784410BD00004A0000004200000062
:100F30004FF04070E1EE100A704700006C1000089E
:100F40000000002010010000C40100087C1100080E
:100F500010010020F0070000E0010008100100006F
:100F600043000000F8FFFFFF004040404040404089
:100F7000404041414141414040404040404040406C
:100F80004040404040404040400502020202020210
:100F9000020202020202020202202020202020205F
:100FA0002020200202020202020290909090909073
:100FB0001010101010101010101010101010101031
:100FC00010101010020202020202888888888888A5
:100FD0000808080808080808080808080808080891
:100FE0000808080802020202400000000000000099
:100FF00000000000000000000000000000000000F1
:1010000000000000000000000000000000000000E0
:1010100000000000000000000000000000000000D0
:1010200000000000000000000000000000000000C0
:1010300000000000000000000000000000000000B0
:1010400000000000000000000000000000000000A0
:101050000000000000000000000000000000000090
:101060000000000000000000000000000000000080
:10107000B6030000000A0A4C61622031202D20597D
:10108000757261204B696D2C204161726F6E204832
:10109000616C6C696E670D0A0A00504F53542066EC
:1010A00061696C2E20576F756C6420796F75206CA8
:1010B000696B6520746F2072657472793F202859BE
:1010C000203D207965732C204E203D206E6F290D28
:1010D0000A0041636365707420746865206C696DF3
:1010E0006974733F202859203D207965732C204E68
:1010F000203D206E6F290D0A004C6F776572206CC1
:10110000696D6974206D75737420626520696E2045
:1011100072616E6765202835302C39393530292EBB
:101120000D0A004E6577206C6F776572206C696DD3
:10113000697420286D6963726F7365636F6E647381
:10114000293A0D0A00526572756E2077697468201D
:1011500073616D65206C696D6974733F2028592037
:101160003D207965732C204E203D206E6F290D0A9D
:0C1170000052756E6E696E670D0A00007B
:040000050800018965
:00000001FF
